{
  "contractName": "PracticeContract",
  "abi": [
    {
      "inputs": [
        {
          "internalType": "uint256",
          "name": "_size",
          "type": "uint256"
        },
        {
          "internalType": "uint256",
          "name": "_skip",
          "type": "uint256"
        }
      ],
      "name": "createUintArr",
      "outputs": [
        {
          "internalType": "uint256[]",
          "name": "",
          "type": "uint256[]"
        }
      ],
      "stateMutability": "pure",
      "type": "function",
      "constant": true
    }
  ],
  "bytecode": "0x608060405234801561001057600080fd5b506103fb806100206000396000f3fe608060405234801561001057600080fd5b506004361061002b5760003560e01c80630151b36514610030575b600080fd5b61004a60048036038101906100459190610176565b610060565b6040516100579190610274565b60405180910390f35b606061006f838361007761008d565b905092915050565b6000818361008591906102c5565b905092915050565b6060600084101561009d57600093505b8367ffffffffffffffff8111156100b7576100b661031f565b5b6040519080825280602002602001820160405280156100e55781602001602082028036833780820191505090505b50905060005b848110156101335761010181858563ffffffff16565b8282815181106101145761011361034e565b5b602002602001018181525050808061012b9061037d565b9150506100eb565b509392505050565b600080fd5b6000819050919050565b61015381610140565b811461015e57600080fd5b50565b6000813590506101708161014a565b92915050565b6000806040838503121561018d5761018c61013b565b5b600061019b85828601610161565b92505060206101ac85828601610161565b9150509250929050565b600081519050919050565b600082825260208201905092915050565b6000819050602082019050919050565b6101eb81610140565b82525050565b60006101fd83836101e2565b60208301905092915050565b6000602082019050919050565b6000610221826101b6565b61022b81856101c1565b9350610236836101d2565b8060005b8381101561026757815161024e88826101f1565b975061025983610209565b92505060018101905061023a565b5085935050505092915050565b6000602082019050818103600083015261028e8184610216565b905092915050565b7f4e487b7100000000000000000000000000000000000000000000000000000000600052601160045260246000fd5b60006102d082610140565b91506102db83610140565b9250817fffffffffffffffffffffffffffffffffffffffffffffffffffffffffffffffff048311821515161561031457610313610296565b5b828202905092915050565b7f4e487b7100000000000000000000000000000000000000000000000000000000600052604160045260246000fd5b7f4e487b7100000000000000000000000000000000000000000000000000000000600052603260045260246000fd5b600061038882610140565b91507fffffffffffffffffffffffffffffffffffffffffffffffffffffffffffffffff82036103ba576103b9610296565b5b60018201905091905056fea2646970667358221220626c436dcf52699bef8007c2b08a58305cdf67e154bd981cd7e609c05bc1a7b464736f6c634300080d0033",
  "immutableReferences": {},
  "source": "// SPDX-License-Identifier: GPL-3.0\n\n/* For practice */\n\npragma solidity >= 0.7.0 < 0.9.0;\n\nlibrary ArrayIterator {\n\n    function iterate(\n        uint size,\n        uint skip,\n        function(uint, uint) pure returns (uint) _skipFn\n    ) internal pure returns (uint[] memory tempArr) {\n        if(size < 0)\n            size = 0;\n        tempArr = new uint[](size);\n\n        for(uint i = 0; i < size; i++) {\n            tempArr[i] = _skipFn(i, skip);\n        }\n    }\n\n}\n\ncontract PracticeContract {\n\n    function skipper(uint _i, uint _skip) internal pure returns (uint) {\n        return _i*_skip;\n    }\n\n    function createUintArr(uint _size, uint _skip) public pure returns (uint[] memory) {\n        return ArrayIterator.iterate(_size, _skip, skipper);\n    }\n}",
  "sourcePath": "/Users/josh/Bytangle/Practice/Web3.0 & dApps/contracts/lessons/lessons-contract/contracts/Practice.sol",
  "compiler": {
    "name": "solc",
    "version": "0.8.13+commit.abaa5c0e.Emscripten.clang"
  },
  "schemaVersion": "3.4.7",
  "updatedAt": "2022-06-06T19:43:21.705Z",
  "networkType": "ethereum",
  "devdoc": {
    "kind": "dev",
    "methods": {},
    "version": 1
  },
  "userdoc": {
    "kind": "user",
    "methods": {},
    "version": 1
  }
}